:020000040800F2
:10000000E008002009030008F1230008F32300089A
:10001000F5230008F7230008F9230008000000007A
:10002000000000000000000000000000FB230008AA
:10003000FD23000800000000FF2300080124000841
:1000400023030008F54B00082303000823030008DE
:1000500023030008230300082303000823030008E8
:10006000B55100082303000823030008F74F0008D8
:1000700023030008230300082303000823030008C8
:1000800023030008230300082303000823030008B8
:1000900023030008230300082303000803240008A7
:1000A0002303000823030008230300082303000898
:1000B0009B4B0008D74B00087D4B0008230300082A
:1000C0002303000823030008230300082303000878
:1000D0002303000805240008230300082303000865
:1000E00023030008230300082303000800F002F89C
:1000F00000F05AF80AA090E8000C82448344AAF168
:100100000107DA4501D100F04FF8AFF2090EBAE865
:100110000F0013F0010F18BFFB1A43F0010318473B
:100120005C6900007C6900000A444FF0000C10F884
:10013000013B13F0070408BF10F8014B1D1108BF65
:1001400010F8015B641E05D010F8016B641E01F805
:10015000016BF9D113F0080F1EBF10F8014BAD1C55
:100160000C1B09D16D1E58BF01F801CBFAD505E073
:1001700014F8016B01F8016B6D1EF9D59142D6D3CD
:10018000704700000023002400250026103A28BFF5
:1001900078C1FBD8520728BF30C148BF0B607047F9
:1001A0001FB51FBD10B510BD06F01DFA1146FFF7B3
:1001B000F7FF04F0CAFD06F03BFA03B4FFF7F2FFC5
:1001C00003BC06F043FA0000484810B5016841F04E
:1001D000010101604168464A114041600168454A99
:1001E00011400160016821F480210160416821F41F
:1001F000FE0141604FF41F0181600021C16200F0E7
:1002000033F83D494FF00060086010BD30B5374904
:1002100048683A4A10F00C03394803D0042B01D047
:10022000082B01D0026015E04B684C6803F4701392
:100230004FF0020514F4803F05EB934307D0CC6ADE
:1002400004F00F04641CB2FBF4F25A43EAE72D4AAF
:100250005343036049682A4AC1F30311121D515CDC
:100260000268CA40026030BD0CB500211F480191F0
:100270000091026842F4803202604FF4A063026889
:1002800002F400320092019A521C0192009A12B9B3
:10029000019A9A42F3D10268920324D50121009178
:1002A000416841604168416041684160416821F4B2
:1002B0007C114160416841F498114160016841F04E
:1002C0008071016001688901FCD5416821F003015A
:1002D0004160416841F0020141604168C1F3810120
:1002E0000229FAD10CBD00910CBD000000100240A3
:1002F0000000FFF8FFFFF6FE08ED00E000127A00B4
:100300000000002000093D000948804709480047D7
:10031000FEE7FEE7FEE7FEE7FEE7FEE7FEE7FEE7B5
:10032000FEE7FEE704480549054A064B7047000012
:10033000C9010008ED000008E0020020E0080020EC
:10034000E0040020E0040020AC48016841F0010115
:1003500001604168AA4A114041600168A94A114000
:100360000160016821F480210160416821F4FE01EF
:1003700041604FF41F0181600021C16270479F49B5
:100380000A6822F480320A600A6822F480220A6035
:10039000B0F5803F07D0B0F5802F03D1086840F456
:1003A000A02008607047086840F48030F9E70246F2
:1003B000002053099149012B0AD0022B0AD0496A27
:1003C00002F01F02012393400B4200D0012070472E
:1003D0000968F5E7096AF3E718B500204FF4A0644F
:1003E00000903120FFF7E3FF0099491C0091A142E2
:1003F00001D00028F5D03120FFF7D9FF002800D028
:10040000012018BD7D490A6822F0F80242EAC000C6
:10041000086070477C4908607047784A5368084311
:1004200023F4741318435060704777490866704787
:10043000724B10B5DA6A754C084322401043D862FB
:1004400010BD6E4A516821F00301014351607047AD
:100450006A48406800F00C007047684A516821F013
:10046000F001014351607047644A516821F4E06132
:1004700001435160704761494A6822F4605242EA80
:10048000C000486070475D4A0029517A01D001439D
:1004900000E08143517270475B49C1F8D800704752
:1004A000564A516821F44041014351607047534915
:1004B000002281F8202081F82020012802D0042881
:1004C00002D1052081F8200070475149086070472B
:1004D0004A490A6A02430A6270474D494439086032
:1004E000704730B545494A6812F00C03494A03D0B9
:1004F000042B01D0082B01D0026015E04B684C683A
:1005000003F470134FF0020514F4803F05EB93439E
:1005100007D0CC6A04F00F04641CB2FBF4F25A4317
:10052000EAE73D4A534303604A680F233B4C03EA22
:100530001212A35C0268DA4042604B68072505EAA4
:100540001323E35C22FA03F383604B6805EAD323A9
:10055000E35CDA40C2604968032303EA9131231F58
:10056000595CB2FBF1F1016130BD244A00295169A7
:1005700001D0014300E08143516170471F4A0029C7
:10058000916901D0014300E08143916170471B4AAA
:100590000029D16901D0014300E08143D161704756
:1005A000164A0029D16801D0014300E08143D1609F
:1005B0007047124A0029116901D0014300E08143CC
:1005C0001161704712494039086070470E49C8648C
:1005D00070470A49C87170470848416A41F0807104
:1005E00041627047054A0146002092680A4200D0E5
:1005F00001207047014988727047000000100240D6
:100600000000FFF8FFFFF6FE00004242F0FFFEFF91
:100610008004424200127A0000093D0018000020C8
:10062000C44910B588420AD101218C032046FFF746
:10063000B7FF2046BDE810400021FFF7B1BFBE491B
:10064000884202D101214C0410E0BC49884202D109
:1006500001218C040AE0BA49884202D10121CC046C
:1006600004E0B84988420AD101210C052046FFF771
:10067000A0FF2046BDE810400021FFF79ABF10BD43
:1006800030B50446008A85B00D464CF6FF7108402F
:10069000E98801432182A1894EF6F3100140A88820
:1006A0002A8910436A890A431043A081A08A4FF621
:1006B000FF410840A9890143A1826846FFF711FF65
:1006C0009C48844201D1039800E00298A189090462
:1006D00000EBC00101EB0010296801D5490000E0E2
:1006E0008900B0FBF1F06422B0FBF2F109010B09C3
:1006F0006FF018056B4300EB8300A3891D044FF0D6
:10070000320306D503EBC000B0FBF2F000F00700A7
:1007100005E003EB0010B0FBF2F000F00F0008431F
:10072000208105B030BD4FF4165101600021818059
:10073000C18001810C2242818181704710B5038AFA
:100740004FF2FF0213400A884C8822438C88C988E4
:100750000C4322431A43028210BD002101804180D4
:100760008180C18070470029818902D041F4005105
:1007700001E021F400518181704710B5C1F34213AB
:1007800001F01F040121A140012B07D0022B07D04B
:100790001430002A026805D00A4304E00C30F8E760
:1007A0001030F6E78A43026010BD002A828A01D029
:1007B0000A4300E08A4382827047028A22F00F02D5
:1007C0000282028A0A4302827047828922F400620E
:1007D000828182890A43828170470029818902D0FF
:1007E00041F0020101E021F0020181817047028A9B
:1007F00022F020020282028A0A4302827047002904
:10080000018A02D041F4804101E021F4804101825B
:100810007047C1F30801818070478088C0F30800E9
:100820007047818941F0010181817047028BD2B20A
:100830000283028B42EA012101837047028B02F49A
:100840007F420283028B0A43028370470029818A18
:1008500002D041F0200101E021F0200181827047A7
:100860000029818A02D041F0100101E021F010013D
:10087000818270470029818A02D041F0080101E09D
:1008800021F00801818270470029818902D041F45A
:10089000004101E0C1F30E01818170470029818A86
:1008A00002D041F4006101E021F4006181827047CF
:1008B000828A22F004028282828A0A4382827047FC
:1008C0000029818A02D041F0020101E021F00201F9
:1008D000818270470246002012880A4200D001201F
:1008E0007047C9430180704730B501F01F020124F1
:1008F0000025C1F3421304FA02F2012B0FD0022BA0
:100900000FD0838A4FEA11210088134204FA01F4C0
:1009100000EA040001D000B10125284630BD8389DA
:10092000F0E7038AEEE70A0A01219140C9430180FA
:10093000704700000038014000440040004800407B
:10094000004C004000500040914910B5884206D14B
:1009500001210420FFF724FE002104203BE08D4903
:10096000884206D101210820FFF71AFE0021082045
:1009700031E08949884206D101211020FFF710FE9D
:100980000021102027E08549884206D1012120203E
:10099000FFF706FE002120201DE08149884206D194
:1009A00001214020FFF7FCFD0021402013E07D499C
:1009B000884206D101218020FFF7F2FD002180202E
:1009C00009E0794988420AD1841501212046FFF7C0
:1009D000E7FD00212046BDE81040FFF7E1BD10BD56
:1009E00010B501210846FFF7DBFD0021BDE81040EE
:1009F0000120FFF7D5BDF0B5CA78002502F00F033E
:100A0000D20601D58A7813430A784FF00F0E12F000
:100A1000FF0F4FF001021DD0D0F800400F8802FAFE
:100A200005F63740B74211D14FEA850C0EFA0CF7A4
:100A300024EA070703FA0CF43C43CF78282F02D0AE
:100A4000482F02D002E0466100E006616D1C082DCF
:100A5000E4D304600C88FF2C1ED944685FF00006C4
:100A600006F1080702FA07F50F882F40AF420FD1B1
:100A70004FEA860C0EFA0CF7BC4303FA0CF73C4322
:100A8000CF78282F00D14561CF78482F00D105615C
:100A9000761C082EE4D34460F0BD4FF6FF71018050
:100AA000022181700421C1707047024600209268C3
:100AB0000A4200D001207047806880B27047024629
:100AC0000020D2680A4200D001207047C06880B27E
:100AD000704701617047416170470AB10161704719
:100AE00041617047C160704741F480328261816129
:100AF00082618169806970472C4B10B51A684FF686
:100B00008074224042EA00100843186010BD284952
:100B1000C8617047F0B5254C002801DAE36900E0B0
:100B20006368420D120185B2C0F301579540C0F3CE
:100B30000346032F05D0C2020AD50322B2409343D5
:100B400007E023F07062636823F07063636002E083
:100B5000AB4343F0706201B12A43002801DAE2613D
:100B6000F0BD6260F0BD10B58A0721F003040F49A3
:100B7000130F21440F228C689A4094438C608A683A
:100B8000984002438A6010BD0949C1F8DC007047F3
:100B900000080140000C0140001001400014014019
:100BA00000180140001C01400020014000000140ED
:100BB000000020422849084328490860704770B562
:100BC0000F23C47801780122F4B1244C24684578BD
:100BD00004F4E064C4F5E064240AC4F10406E340CC
:100BE0008478B5401C402C4301F1E021230181F8B9
:100BF0000034007800F01F018A404009800000F1B5
:100C0000E020C0F8002170BD01F01F0082404809BB
:100C1000800000F1E020C0F8802170BD104A114032
:100C200001430E48001F016070470C4A121D002945
:100C3000116801D0014300E08143116070474FF01B
:100C4000E0210428086903D020F0040008617047FF
:100C500040F00400FAE700000000FA050CED00E0A7
:100C600080FFFF1FFC4A116801F038010143116049
:100C70007047F9490A6822F008020A600A680243CC
:100C80000A607047F4490A6822F010020A600A6894
:100C900002430A607047F048F0494160F049416002
:100CA0007047ED48ED494160ED4941607047EA48C1
:100CB000016941F0800101617047E748016941F035
:100CC000800101617047E4490420CA68D20701D05D
:100CD00001207047CA68520701D502207047C968D1
:100CE000C906FBD50320704700B50346FFF7EBFFAD
:100CF00003E000BFFFF7E7FF5B1E012803D0002BD6
:100D000000D1052000BD002BF4D1FAE770B50546EF
:100D10004FF430263046FFF7E7FF042811D1CE4CC0
:100D2000206940F0020020616561206940F04000C8
:100D300020613046FFF7D8FF216941F6FD7211406E
:100D4000216170BD30B54FF430252846FFF7CCFF48
:100D5000042810D1C04C206940F0040020612069B3
:100D600040F0400020612846FFF7BEFF216941F6B0
:100D7000FB721140216130BD00B50346FFF7A3FFB0
:100D800003E000BFFFF79FFF5B1E012803D0002B8D
:100D900000D1052000BD002BF4D1FAE730B54FF4A7
:100DA00030252846FFF7E8FF042810D1AA4C206917
:100DB00040F004002061206940F040002061284696
:100DC000FFF7DAFF216941F6FB721140216130BD66
:100DD000A1490020C969890700D50120704770B575
:100DE000A525FFF7F5FF00B100254FF4302630466A
:100DF000FFF77AFF042827D1974C9848A0609848BD
:100E0000A060206940F020002061206940F040008F
:100E100020613046FFF768FF41F6EF7604280ED1D7
:100E2000206941F6DF7108402061206940F0100020
:100E300020618C4805804FF40050FFF755FF0528CE
:100E400002D021693140216170BDF8B5064600200D
:100E50004FF4005C00900D466046FFF745FF042804
:100E600016D17D4C206940F001002061358060463C
:100E7000FFF73AFF41F6FE77042806D1B61C280C8E
:100E8000009630806046FFF72FFF216939402161CD
:100E9000F8BDF0B506464FF400570D463846FFF74B
:100EA00023FF04280CD16C4C206940F00100206124
:100EB00035803846FFF718FF2169BA1E11402161BD
:100EC000F0BDF0B506464FF400570D463846FFF723
:100ED0000BFF042813D1604C6048A0606048A060FC
:100EE000206940F01000206135803846FFF7FCFE95
:100EF000052804D0216941F6EF7211402161F0BD4F
:100F00002DE9F041C04300F0FF0CC0F30727C0F308
:100F10000746050E4FF400584046FFF7E5FE04284B
:100F200037D14D4C4D49A1604D49A160216941F037
:100F300010012161BCF1FF0F08D04A480830A0F829
:100F400000C04046FFF7D0FE04281BD1FF2F07D07A
:100F500044480A3007804046FFF7C6FE042811D1F6
:100F6000FF2E07D03F480C3006804046FFF7BCFEFE
:100F7000042807D1FF2D07D03A480E30058040469F
:100F8000FFF7B2FE052804D0216941F6EF72114047
:100F90002161BDE8F08170B505464FF4302630463A
:100FA000FFF7A2FE042818D12B4C2C48A0602C4837
:100FB000A060206940F020002061206940F04000DE
:100FC00020613046FFF790FE41F6DF71042805D01E
:100FD000052802D022690A40226170BD20690840BC
:100FE0002061206940F0100020611E480DB10021F1
:100FF00000E0A52101803046FFF776FE0528ECD001
:10100000216941F6EF721140216170BDF0B5124CBB
:101010000746124816460D46A0601148A0604FF4DE
:10102000005C6046FFF760FE042814D1206940F0A0
:101030001000206135430B493D43891C45F0F80001
:1010400008806046FFF750FE052804D0216941F66C
:10105000EF7211402161F0BD00200240230167457D
:10106000AB89EFCD00F8FF1F1C48C06980087047AE
:101070001A48006A7047194900200968890600D596
:1010800001207047154A0029116901D0014300E091
:1010900081431161704701460020104A012903D0A5
:1010A000D2680A4203D17047D169C907FBD0012039
:1010B00070470A49C860704708490420CA68D207C7
:1010C00001D001207047CA68520701D5022070473D
:1010D000C968C906FBD50320704700000020024004
:1010E000F94910B5884202D10121C41486E0B0F15B
:1010F000804F09D0F54988420DD101210220FFF728
:1011000058FA0021022064E001210846FFF751FA55
:10111000002101205DE0EE49884206D10121042032
:10112000FFF747FA0021042053E0EA49884206D13C
:1011300001210820FFF73DFA0021082049E0E64997
:10114000884206D101211020FFF733FA0021102038
:101150003FE0E249884206D101212020FFF729FA29
:101160000021202035E0DE49884202D101214414CB
:1011700044E0DC49884202D10121CC043EE0DA4956
:10118000884202D101210C0538E0D849884202D1B9
:1011900001214C0532E0D649884206D10121402088
:1011A000FFF707FA0021402013E0D249884206D118
:1011B00001218020FFF7FDF90021802009E0CE49C0
:1011C00088420AD1841501212046FFF7F2F9002157
:1011D0002046BDE81040FFF7ECB9C849884202D16B
:1011E00001210C040AE0C649884202D101214C04C5
:1011F00004E0C44988420AD101218C042046FFF74B
:10120000CFF92046BDE810400021FFF7C9B910BD55
:1012100030B50288AC4BB24C98420DD0A0420BD0F6
:10122000B0F1804F08D0A94DA84205D0A84DA842E2
:1012300002D0A84DA84203D122F070054A882A4363
:10124000A54DA84206D0A54DA84203D022F4407572
:10125000CA882A4302808A8882850A880285984241
:101260000AD0A04208D0A54A904205D0A44A904294
:1012700002D0A44A904201D1097A018601218182DB
:1012800030BD30B5028C22F001020284028C8388CA
:10129000048B22F0020224F073050C882C430D8984
:1012A00015434A882A43884DA8420BD08C4DA8424A
:1012B00008D0924DA84205D0914DA84202D0914D40
:1012C000A8420DD122F008054A8923F440732A432D
:1012D00022F004058A882A438D891D43CB892B433C
:1012E00083800483C9888186028430BD70B5028CF6
:1012F00022F010020284028C8488038B0D8823F470
:10130000E6464FF6FF7303EA052535430E8922F0C2
:10131000200203EA061616434A8803EA0212324301
:10132000694EB04202D06E4EB04215D122F0800616
:101330004A8924F4406403EA0212324322F0400650
:101340008A8803EA021232438E8903EA860626431C
:10135000CC8903EA8404344384800583C9880187E7
:10136000028470BD70B5028C22F480720284028CFB
:101370008488838B0D8823F073031D4322F400734C
:101380000E894FF6FF7202EA06261E434B8802EAD8
:10139000032333434C4EB04202D0514EB04215D1DC
:1013A00023F400664B8924F4405402EA03233343B8
:1013B00023F480668B8802EA032333438E8902EA92
:1013C00006162643CC8902EA0414344384808583BC
:1013D000C9888187038470BD70B5028C22F4805265
:1013E0000284048C8288838B0D8823F4E6464FF6B2
:1013F000FF7303EA0525354324F400560C8903EAFC
:10140000043434434E8803EA063626432E4CA04269
:1014100002D0334CA04205D122F480448A8903EAE9
:101420008212224382808583C988A0F840100684F6
:1014300070BD828B22F440628283828B4FF6FF73F1
:1014400003EA01210A4382837047828B22F00C0257
:101450008283828B0A4382837047028B22F440622C
:101460000283028B4FF6FF7303EA01210A430283D2
:101470007047F0B5048C24F010040484078B048CAE
:101480004FF6FF7527F4734705EA03333B4305EA3C
:1014900002221A430C4B05EA011698420ED0104B5B
:1014A00098420BD0B0F1804F08D0084B984205D03D
:1014B000074B984202D0074B984225D124F02001D7
:1014C000314341F0100124E0002C014000040040B1
:1014D00000080040000C00400010004000140040D4
:1014E00000340140004C01400050014000540140D4
:1014F00000180040001C0040002000400040014057
:10150000004401400048014024F0A0030B4343F095
:10151000100102830184F0BD028B22F00C020283D1
:10152000028B0A430283704770B5048C24F00104D7
:101530000484058B048C4FF6FF7606EA03131343ED
:1015400025F0F305F94A2B4390420ED0F84A904219
:101550000BD0B0F1804F08D0F64A904205D0F64A41
:10156000904202D0F54A904202D124F0020201E0FA
:1015700024F00A020A4342F001010383018470BD92
:101580002DE9F05F0D4604460888E84FDFF8A0C358
:10159000DFF8A0834988AA882B894FF0804960B37F
:1015A000042832D04FF6FF7E082836D0208C9B4688
:1015B00020F480502084A38B268C704600EA0222FF
:1015C00023F473431A4300EA0B3010430EEA013E42
:1015D000BC420BD0644509D04C4507D0444505D0EA
:1015E000D54A944202D0D54B9C4245D126F40051B5
:1015F00041EA0E0141F4805143E02046FFF794FF99
:10160000E9882046BDE8F05F86E72046FFF731FF16
:10161000E9882046BDE8F05F1FE7208C20F4807049
:101620002084B4F81CA0208C0EEA031313432AF084
:10163000F30A0EEA012B43EA0A03BC420BD06445CD
:1016400009D04C4507D0444505D0BB4A944202D04E
:10165000BA4A944204D120F4007040EA0B0002E040
:1016600020F42060084340F48070A3832084E9883C
:101670002046BDE8F05FE8E626F402420A4342F461
:101680008051A08320462184E988BDE8F05FD0E640
:101690002DE9F0410C46002649880746012501B98D
:1016A0000226A288012A00D1022520882389002849
:1016B000384610D0FFF7DDFEE1883846FFF7CDFE53
:1016C00023892A4631463846FFF72EFFE1883846FF
:1016D000BDE8F04120E7FFF727FFE1883846FFF734
:1016E0001BFF23892A4631463846FFF7C2FEE188B0
:1016F0003846BDE8F041B0E610B50A884B88CC8882
:101700001A438B8823431A430B891A434B898989CF
:101710001A430A43A0F8442010BD4FF6FF718180A0
:1017200000210180C1804180017270470021018049
:1017300041808180C180018141818181C181704767
:1017400000210180418001228280C1800181704797
:101750000021018041808180C1800181418181819E
:1017600070470029018802D041F0010101E021F019
:10177000010101807047002930F8441F02D041F474
:10178000004101E0C1F30E0101807047002A828907
:1017900001D00A4300E08A4382817047818270470A
:1017A0001143A0F848107047002A828901D00A43EB
:1017B00000E08A4382817047018921F0070101819D
:1017C0007047028922F070020A430281704700B517
:1017D0000346FFF7F6FF188940F00700188100BDA7
:1017E00070B516460D46602904464FF00102314699
:1017F0000AD0FFF799FE29462046FFF7E2FF20892D
:1018000040F00700208170BDFFF733FEF3E730B5ED
:1018100004894FF6FF7505EA03231343E4B20B4333
:101820002343038130BD10B50446FFF7F0FF208944
:1018300040F07700208110BD10B50446FFF7E7FFA8
:10184000208940F48040208110BD0185828270474C
:10185000028822F070020A430280704770B5058941
:10186000048B068C25F007050D434FF6FC410C4018
:1018700040F201110C434FF6FF7101EA031126F00B
:1018800022061143314305810483018470BD028B1C
:1018900022F070020A4302837047028B4FF6FF73F7
:1018A00022F4E04203EA0121114301837047828B55
:1018B00022F070020A4382837047828B4FF6FF73D7
:1018C00022F4E04203EA0121114381837047002999
:1018D000018802D041F0800101E021F08001018007
:1018E00070470029818802D041F0040101E021F015
:1018F0000401818070470029818802D041F00801ED
:1019000001E021F00801818070470029818802D020
:1019100041F0010101E021F0010181807047028B5B
:1019200022F008020A43028370470000002C0140A5
:10193000003401400004004000080040000C00405A
:10194000028B4FF6FF7322F4006203EA0121114378
:101950000183E9E7828B22F008020A438283E3E7EE
:10196000828B4FF6FF7322F4006203EA01211143D8
:101970008183D9E7028B22F004020A430283D3E772
:10198000028B4FF6FF7322F4806203EA01211143B8
:101990000183C9E7828B22F004020A438283C3E7F2
:1019A000828B4FF6FF7322F4806203EA0121114318
:1019B0008183B9E7028B22F080020A430283B3E7F6
:1019C000028B4FF6FF73C2F30E0203EA01211143AB
:1019D0000183A9E7828B22F080020A438283A3E776
:1019E000828B4FF6FF73C2F30E0203EA012111430B
:1019F000818399E7028C22F002020A43028493E772
:101A0000028C22F008020A4302848DE7028C4FF612
:101A1000FF7322F0200203EA01111143018483E7DE
:101A2000028C4FF6FF7322F0800203EA011111438A
:101A3000018479E7028C4FF6FF7322F4007203EA07
:101A40000121114301846FE7028C4FF6FF7322F4EA
:101A5000006203EA01211143018465E7028C4FF61D
:101A6000FF7322F4005203EA0131114301845BE762
:101A700010B50123048C8B409C430484038C8A4062
:101A80001343038410BD10B50423048C8B409C4386
:101A90000484038C8A401343038410BD30B50124B1
:101AA000058C00F118038C40A543058489B10829F1
:101AB0000FD0091FC1F34E001844016821F4E04122
:101AC000016001684FF6FF7303EA022211430160CF
:101AD00030BD03EB5100016821F070010160016825
:101AE000F4E70029018802D041F0020101E021F071
:101AF0000201018018E70029018802D041F00401A9
:101B000001E021F0040101800EE70029818802D064
:101B100041F0800101E021F08001818004E702882A
:101B200022F00802028002880A430280FCE68288D2
:101B300022F07002828082880A438280F4E6028961
:101B400022F00702028102890A430281ECE602893F
:101B500022F08002028102890A430281E4E6818444
:101B6000E2E68185E0E68186DEE60187DCE68187C4
:101B7000DAE6A0F84010D7E6028822F4407202802C
:101B800002880A430280CFE6808ECDE6008FCBE646
:101B9000808FC9E6B0F84000C6E6808CC4E6008DB0
:101BA000C2E602460020128A0A4200D00120BBE6AB
:101BB000C9430182B8E602460020138A92890B428B
:101BC00002EA010202D0002A00D00120ACE6C9439B
:101BD0000182A9E6C54910B5884202D10121441508
:101BE0000AE0C349884202D10121041504E0C14939
:101BF00088420AD10121CC032046FEF7D1FC2046C1
:101C0000BDE810400021FEF7CBBC10BD10B5426806
:101C1000B94B0C791A400B6842EA04221343436023
:101C20008368B64A1340D1E9024222434C7943EA21
:101C300044031A438260C26A097C22F47002491E7E
:101C4000C9B242EA0151C16210BD002101600171B7
:101C500041718160C1600121017470470029816870
:101C600002D041F0010101E021F0010181607047E3
:101C70000029816802D041F4807101E021F4807173
:101C800081607047002A4268C9B201D00A4300E06F
:101C90008A4342607047816841F008018160704763
:101CA000014600208968090700D501207047816836
:101CB00041F00401816070470146002089684907AE
:101CC00000D5012070470029816802D041F4A001AD
:101CD00001E021F4A001816070470146002089687D
:101CE000490200D5012070474268491E22F4604233
:101CF00042EA4131416070470029416802D041F415
:101D0000006101E021F400614160704770B5072473
:101D100009290AD9C568A1F10A0606EB4606B440AE
:101D2000A543B3401D43C56007E0056901EB4106CB
:101D3000B440A543B3401D4305611F23072A09D2C0
:101D4000446B521E02EB820293409C4391400C4331
:101D5000446370BD0D2A09D2046BD21F02EB8202CC
:101D600093409C4391400C43046370BDC46A0D3A98
:101D700002EB820293409C4391400C43C46270BDCD
:101D80000029816802D041F4801101E021F4801122
:101D900081607047C06C80B2704754484C30006816
:101DA00070470029416802D041F4806101E021F4CC
:101DB0008061416070470029416802D041F4805140
:101DC00001E021F4805141607047826822F4E042D2
:101DD0000A43826070470029816802D041F40041C3
:101DE00001E021F40041816070470029816802D040
:101DF00041F4021101E021F40211816070470146B3
:101E000000208968890200D50120704770B5072439
:101E100009290AD9C568A1F10A0606EB4606B440AD
:101E2000A543B3401D43C56007E0056901EB4106CA
:101E3000B440A543B3401D430561836BC3F3015414
:101E4000121B921C02EB82041F22A2409343A1406A
:101E50000B43836370BD826B491E22F4401242EA39
:101E600001518163704708B508440090026008BDC5
:101E700008B5084428300090006880B208BD426868
:101E80001F4B1A400A4342607047416282627047AA
:101E9000426822F01F020A4342607047134908312A
:101EA0000028086802D040F4000001E020F400009F
:101EB000086070470246002012680A4200D00120E4
:101EC0007047C9430160704710B50246002054684E
:101ED0000B0AC9B20C401168194202D0002C00D084
:101EE000012010BD6FEA11210160704700240140FC
:101EF00000280140003C0140FFFEF0FFFDF7F1FF2C
:101F0000FFFD3FFF01684FF6FE72114001600021A6
:101F1000016041608160C1606A496A4A0839904243
:101F200003D1486840F00F0006E0664A1432904240
:101F300004D1486840F0F00048607047614A283298
:101F4000904203D1486840F47060F5E75D4A3C3246
:101F5000904203D1486840F47040EDE7594A50324E
:101F6000904203D1486840F47020E5E7554A643256
:101F7000904203D1486840F47000DDE7514A78325E
:101F8000904203D1486840F07060D5E74E4A111F77
:101F9000904203D1086840F00F0006E04A4A14322C
:101FA000904204D1086840F0F00008607047464A4B
:101FB0002832904203D1086840F47060F5E7424A45
:101FC0003C32904203D1086840F47040EDE73E4A4D
:101FD00050329042EAD1086840F47020E5E730B50D
:101FE000036847F6F07293430C6A8A682243D1E98A
:101FF00004452C4322438C692243CC6922434C6A1A
:1020000022438C6A22431A430260CA6842600A680B
:1020100082604968C16030BD00210160416081601B
:10202000C160016141618161C1610162416281629E
:1020300070470029016802D041F0010102E04FF62B
:10204000FE72114001607047002A026801D00A4305
:1020500000E08A430260704741607047406880B288
:10206000704701460020CA0002D5174A083A01E02D
:10207000144A083A12680A4200D001207047C10091
:1020800003D51149091F086070470E490839486097
:10209000704701460020CA0002D50B4A083A01E009
:1020A000084A083A12680A4200D001207047C1006D
:1020B00003D50549091F086070470249083948607F
:1020C00070470000080002400804024010B50121DA
:1020D0004C072046FEF76DFA2046BDE8104000216F
:1020E000FEF767BA30B54D4C236840F6FE72824069
:1020F0009343D1E900252A43D1E902510D432A43F4
:1021000082401A43226030BD00210160416081603D
:10211000C1607047414A01238340106809B11843E8
:1021200000E09843106070473C4B814018680AB14A
:10213000084300E0884318607047384A931483408E
:10214000106809B1184300E0984310607047334AA3
:10215000121D0309012098400029116801D0014394
:1021600000E08143116070472C49091D0028086870
:1021700002D040F0030001E020F003000860704747
:10218000264B814018680AB1084300E08843186074
:102190007047224A08B5104408300090016008BD1D
:1021A0001E4A08B5104414300090016008BD08288C
:1021B00005D042EA0141194A10440162704742EADF
:1021C0000121F8E7154908B501EB90002C3000908B
:1021D000006880B208BD0246104B002034331B68F3
:1021E00091400B4200D00120704781400B483430B1
:1021F00001607047094A0346002012689940074B66
:102200000A4034331B680B4202D0002A00D0012060
:1022100070478140014834300160704700740040CD
:10222000374900200860091D0860091D0860091D64
:1022300008603349334814310860704730B530497D
:102240008379026853B30B6893430B600A1D1368CC
:102250000468A343136002790A44136804682343A3
:102260001360274A083213680468A3431360131DE0
:102270001C680568AC431C604479102C05D02144CF
:102280000A68006802430A6030BD1168046821438F
:102290001160196800680143196030BD0079084475
:1022A00001689143016030BD0021016001710C2281
:1022B000427181717047124910310A6802430A6005
:1022C000704701460E4A0020143212680A4200D0BC
:1022D000012070470A49143108607047084A0146D6
:1022E00000201268064B0A4014331B680B4202D0D0
:1022F000002A00D00120704701491431086070475E
:1023000000040140FFFF0F000D49086070470C49B1
:10231000486070470A498860704709494AF6AA2010
:102320000860704706494CF6CC4008607047044A84
:1023300001460020D2680A4200D001207047000008
:102340000030004010B501210C072046FEF731F99E
:102350002046BDE810400021FEF72BB92149086254
:1023600070472049086170471F4A116821F0E00159
:102370000143116070471B49C1F8A00070471A4B18
:102380001A6822F0030202431A601848026842F0F9
:1023900004020260012905D020BF016821F0040178
:1023A0000160704730BFF8E70F48016841F0040151
:1023B0000160016841F0020101600C48016841F0D0
:1023C0000401016030BF7047074A0146002052688F
:1023D0000A4200D00120704703490A6842EA80009F
:1023E0000860704700000E420070004010ED00E0F1
:1023F0007047FEE7FEE7FEE7FEE77047704770476D
:102400007047704770470000FD48302101705B2124
:102410004170792181707421C1706D2101716F212A
:102420004171382181717F21C171704730B500221F
:10243000F349012805D0472302280ED0032813D0E2
:1024400018E0F0480F240723057863200C704870CB
:10245000332D8B700DD1372004E00B7006204870AF
:1024600062238B70C87005E00B706D2048700E20E1
:102470008870CA700A714A718A71CA7130BDE048A9
:102480000021017041708170C170017141718171D1
:10249000C171704700210A2204E000BFB0FBF2F0D6
:1024A000491CC9B20028F9D1084670472DE9F0430C
:1024B00006460D460846FFF7EDFF07463046FFF794
:1024C000E9FF01460A2295FBF2F002FB1050CE4BC9
:1024D000CB4C13F8100020700020022F0AD395FB7C
:1024E000F2FC9CFBF2F802FB18CC13F81CC084F839
:1024F00001C000E060704FF06409032F0AD395FB20
:10250000F9FC9CFBF2F802FB18CC13F81CC084F811
:1025100002C000E0A0704FF47A7C042F09D395FB31
:10252000FCF595FBF2F702FB175513F81550E57013
:1025300000E0E07096FBF2F502FB1565022913F846
:102540001550257109D396FBF2F595FBF2F702FBC6
:10255000175513F81550657100E06071032909D310
:1025600096FBF9F595FBF2F702FB175513F815509A
:10257000A57100E0A071042907D396FBFCF090FB45
:10258000F2F102FB110013F81000E071BDE8F083D6
:102590002DE9F04782460E4615461046FFF77AFFB2
:1025A00007463046FFF776FF02460A2395FBF3F015
:1025B00003FB1050944911F8104091480470002416
:1025C000022F0AD395FBF3FC9CFBF3F803FB18CC1A
:1025D00011F81CC080F801C000E044704FF064099D
:1025E000032F0AD395FBF9FC9CFBF3F803FB18CCF3
:1025F00011F81CC080F802C000E084704FF47A7CAF
:10260000042F09D395FBFCF595FBF3F703FB175556
:1026100011F81550C57000E0C470BAF1000F2FD04A
:1026200096FBF3F503FB1565022A11F815500571A9
:1026300009D396FBF3F595FBF3F703FB175511F858
:102640001550457100E04471032A09D396FBF9F552
:1026500095FBF3F703FB175511F81550857100E052
:102660008471042A0AD396FBFCF292FBF3F403FB79
:10267000142211F81210C171BDE8F087C471FBE794
:1026800004710621417176218171F7E72DE9F04748
:1026900082460E4615461046FFF7FCFE07463046BA
:1026A000FFF7F8FE02460A2395FBF3F003FB1050F8
:1026B000554911F81040524804700024022F0AD3E3
:1026C00095FBF3FC9CFBF3F803FB18CC11F81CC042
:1026D00080F801C000E044704FF06409032F0AD372
:1026E00095FBF9FC9CFBF3F803FB18CC11F81CC01C
:1026F00080F802C000E084704FF47A7C042F09D384
:1027000095FBFCF595FBF3F703FB175511F81550F6
:10271000C57000E0C470BAF1000F2ED096FBF3F53F
:1027200003FB1565022A11F81550057109D396FBB4
:10273000F3F595FBF3F703FB175511F815504571A9
:1027400000E04471032A09D396FBF9F595FBF3F7F2
:1027500003FB175511F81550857100E08471042AA8
:1027600009D396FBFCF292FBF3F403FB142211F85D
:102770001210C17180E7C4717EE704716321417159
:1027800007218171F7E710B51D49002262240A7004
:102790004A708A70CA7063220C7140234A718B712F
:1027A00008B1072000E07320C87110BDF0B50346E2
:1027B000FFF770FE0A2293FBF2F102FB1131124C7B
:1027C00014F811500E490D700025022809D393FB0F
:1027D000F2F696FBF2F702FB176614F816604E70DD
:1027E00000E04D70032811D3642693FBF6F696FBA8
:1027F000F2F702FB176614F816608E7007E000000F
:1028000030010020AE0000202C6A00088D700428E2
:102810000BD34FF47A7693FBF6F696FBF2F702FBB6
:10282000176614F81660CE7000E0CD7005280BD343
:1028300042F2107693FBF6F696FBF2F702FB176670
:1028400014F816600E7100E00D7106280AD3FC48DA
:1028500093FBF0F090FBF2F302FB130014F810006E
:10286000487100E04D71232088710F20C871F0BDC0
:10287000F0B50346FFF70EFE0A2293FBF2F102FBCE
:102880001131F04C14F81150EF490D700025022859
:1028900009D393FBF2F696FBF2F702FB176614F8E6
:1028A00016604E7000E04D7003280AD3642693FB37
:1028B000F6F696FBF2F702FB176614F816608E70B8
:1028C00000E08D7004280BD34FF47A7693FBF6F674
:1028D00096FBF2F702FB176614F81660CE7000E064
:1028E000CD7005280BD342F2107693FBF6F696FBDB
:1028F000F2F702FB176614F816600E7100E00D7116
:1029000006280AD3CE4893FBF0F090FBF2F302FBCB
:10291000130014F81000487100E04D710F20887109
:102920004720C871F0BDC84910B50F220A7147226F
:102930004F234A718B717324CC7128B17E200870AB
:102940004B700E228A7004E0002008704C708A7070
:102950006D20C87010BDF0B50346FFF79BFD0A223D
:10296000B3FBF2F102FB1131B64C14F81150B64929
:102970000D700025022809D3B3FBF2F6B6FBF2F77F
:1029800002FB176614F816604E7000E04D700328C5
:102990000AD36426B3FBF6F6B6FBF2F702FB176622
:1029A00014F816608E7000E08D7004280BD34FF47D
:1029B0007A76B3FBF6F6B6FBF2F702FB176614F86D
:1029C0001660CE7000E0CD7005280BD342F2107671
:1029D000B3FBF6F6B6FBF2F702FB176614F81660C7
:1029E0000E7100E00D7106280AD39548B3FBF0F094
:1029F000B0FBF2F302FB130014F81000487100E082
:102A00004D71232088716D20C871F0BDF0B503466B
:102A1000FFF740FD0A22B3FBF2F102FB1131894CB2
:102A200014F8115088490D700025022809D3B3FB12
:102A3000F2F6B6FBF2F702FB176614F816604E705A
:102A400000E04D7003280AD36426B3FBF6F6B6FB0C
:102A5000F2F702FB176614F816608E7000E08D70B6
:102A600004280BD34FF47A76B3FBF6F6B6FBF2F7F5
:102A700002FB176614F81660CE7000E0CD700528D2
:102A80000BD342F21070B3FBF0F0B0FBF2F302FB99
:102A9000130014F81000087100E00D712320487134
:102AA0006D2088714E20C871F0BD67484021674A8B
:102AB000017041708170C1705378002143B14E2381
:102AC00003714371632383714723C371517070474E
:102AD000017141718171C1710120507070475A4874
:102AE00040215A4A017041708170C1709378002171
:102AF00043B1732303714E23437183716323C37105
:102B000091707047017141718171C17101209070A4
:102B100070472DE9F0438C460646FFF7BBFC64275F
:102B20000A23484D0024484A4FF47A79BCF1000F3B
:102B30003ED0464991F803C0BCF1000F31D096FB5E
:102B4000F3FC03FB1C6C022815F81CC082F800C0C3
:102B50000AD396FBF3FC9CFBF3F803FB18CC15F8A7
:102B60001CC082F801C000E05470032809D396FB12
:102B7000F7F797FBF3FC03FB1C7715F817709770BA
:102B800000E09470042809D396FBF9F090FBF3F66B
:102B900003FB160015F81000D07000E0D470CC7064
:102BA00033E0147054709470D4700120C8702CE01D
:102BB00096FBF3F103FB1161022815F81110117057
:102BC00014D396FBF3F191FBF3FC03FB1C110328D8
:102BD00015F8111051700AD396FBF7F191FBF3F73A
:102BE00003FB171115F81110917001E054709470E7
:102BF000042809D396FBF9F090FBF3F103FB1100D5
:102C000015F81000D07000E0D470732010714E20C1
:102C1000507190716320D071B8E40B4840210B4A89
:102C2000017041708170C1701379002183B17323E9
:102C300003714E23437183716323C3711171704714
:102C4000A08601002C6A0008300100202800002026
:102C5000017141718171C17101201071EFE72DE99E
:102C6000F0438C460646FFF715FC64270A23FF4D08
:102C70000024FF4A4FF47A79BCF1000F3ED0FD49A1
:102C800091F805C0BCF1000F31D096FBF3FC03FBBB
:102C90001C6C022815F81CC082F800C00AD396FBF1
:102CA000F3FC9CFBF3F803FB18CC15F81CC082F86E
:102CB00001C000E05470032809D396FBF7F797FB97
:102CC000F3FC03FB1C7715F81770977000E0947005
:102CD000042809D396FBF9F090FBF3F603FB1600EA
:102CE00015F81000D07000E0D4704C7133E014700F
:102CF00054709470D470012048712CE096FBF3F16D
:102D000003FB1161022815F81110117014D396FB02
:102D1000F3F191FBF3FC03FB1C11032815F81110D0
:102D200051700AD396FBF7F191FBF3F703FB1711F0
:102D300015F81110917001E054709470042809D3B3
:102D400096FBF9F090FBF3F103FB110015F810006E
:102D5000D07000E0D470732010714E2050719071CB
:102D60006320D07112E4C2484021C24A0170417010
:102D70008170C170937900214BB1472303716323A4
:102D80004371762383716D23C371917157E701718C
:102D900041718171C1710120907150E72DE9F043BB
:102DA0008C460646FFF776FB64270A23AF4D0024C6
:102DB000AF4A4FF47A79BCF1000F3ED0AD4991F89B
:102DC00007C0BCF1000F31D096FBF3FC03FB1C6C79
:102DD000022815F81CC082F800C00AD396FBF3FC49
:102DE0009CFBF3F803FB18CC15F81CC082F801C05B
:102DF00000E05470032809D396FBF7F797FBF3FC28
:102E000003FB1C7715F81770977000E09470042886
:102E100009D396FBF9F090FBF3F603FB160015F8C7
:102E20001000D07000E0D470CC7133E01470547096
:102E30009470D4700120C8712CE096FBF3F103FB71
:102E40001161022815F81110117014D396FBF3F1DB
:102E500091FBF3FC03FB1C11032815F811105170B2
:102E60000AD396FBF7F191FBF3F703FB171115F863
:102E70001110917001E054709470042809D396FBEE
:102E8000F9F090FBF3F103FB110015F81000D0707E
:102E900000E0D4704720107163205071762090714B
:102EA0006D20D071B8E672484021724A01704170BD
:102EB0008170C170137A002101713BB10723437106
:102EC0004F2383717323C3711172B8E6417181710D
:102ED000C17101201072B2E62DE9F0438C4606461E
:102EE000FFF7D8FA64270A23604D0024604A4FF4A4
:102EF0007A79BCF1000F3ED05E4991F809C0BCF16F
:102F0000000F31D096FBF3FC03FB1C6C022815F874
:102F10001CC082F800C00AD396FBF3FC9CFBF3F8BC
:102F200003FB18CC15F81CC082F801C000E05470F7
:102F3000032809D396FBF7F797FBF3FC03FB1C77F9
:102F400015F81770977000E09470042809D396FB69
:102F5000F9F090FBF3F603FB160015F81000D070A3
:102F600000E0D4704C7257E6147054709470D470B2
:102F70000120487250E696FBF3F103FB1161022831
:102F800015F81110117014D396FBF3F191FBF3FCBB
:102F900003FB1C11032815F8111051700AD396FB7E
:102FA000F7F191FBF3F703FB171115F8111091706E
:102FB00001E054709470042809D396FBF9F090FB5B
:102FC000F3F103FB110015F81000D07000E0D4708D
:102FD0001471072050714F2090717320D0711BE63F
:102FE0002DE9F04705460C460846FFF753FA06461A
:102FF0003021472000231E4A4FF04F094FF06D0A41
:10300000012D05D0022D1AD013705370937050E02B
:1030100013705370174C9370D370A57A45B111712A
:10302000507182F8069082F807A0A372BDE8F0877D
:10303000137153719371D3710120A072F6E70A25C1
:10304000B4FBF5F705FB174C084F022E17F81CC010
:1030500082F800C010D3B4FBF5FCBCFBF5F805FB0F
:1030600018CC17F81CC082F801C006E02C6A0008D2
:1030700030010020280000205370032E0CD34FF0A5
:10308000640CB4FBFCFCBCFBF5F805FB18CC17F892
:103090001CC082F802C000E09370042E09D34FF4E4
:1030A0007A73B4FBF3F3B3FBF5F405FB143317F8B1
:1030B0001330D3701171507182F8069082F807A016
:1030C000B4E72DE9F047054614461046FFF7E2F94C
:1030D00006465B2247204FF04F094FF06D0A002350
:1030E000FE49012D05D0022D19D00B704B708B704D
:1030F00049E00B704B70FA4C8B70CB70E57A3DB1A8
:103100000A71487181F8069081F807A0E3728DE793
:103110000B714B718B71CB710120E07286E70A2530
:10312000B4FBF5F705FB174CEE4F022E17F81CC049
:1031300081F800C00AD3B4FBF5FCBCFBF5F805FB35
:1031400018CC17F81CC081F801C000E04B70032EAA
:103150000CD34FF0640CB4FBFCFCBCFBF5F805FB96
:1031600018CC17F81CC081F802C000E08B70042E48
:1031700009D34FF47A73B4FBF3F3B3FBF5F405FB17
:10318000143317F81330CB700A71487181F8069028
:1031900081F807A04AE770B5D34D4FF40071284677
:1031A000FDF783FC0446A9152846FDF77EFCCB49B4
:1031B00014B1012C04D006E0012804D1302005E030
:1031C00018B1012804D0002000E00620087270BD6C
:1031D0003620FBE7F0B5C1480021C44E01704170B4
:1031E00035784FF07304EF064FF062024FF04F0353
:1031F00002D525F0100535708470C27003714171DD
:103200008171C171F0BDB548472101706D214170D8
:10321000372181707321C170002101714171817169
:10322000C1710CE5AD484721622201700621417051
:103230008270C1700021017141718171C171FEE420
:103240002DE9F04184460E460846FFF723F90A248B
:10325000B6FBF4F104FB1161A24DA04B002715F859
:1032600011101970022809D3B6FBF4F1B1FBF4F286
:1032700004FB121115F81110597000E05F704FF047
:103280006408032809D3B6FBF8F1B1FBF4F204FBA0
:10329000121115F81110997000E09F7004280FD3D7
:1032A0004FF47A70B6FBF0F1B1FBF4F1B6FBF0F03D
:1032B000B0FBF4F104FB110015F81000D87000E029
:1032C000DF706046FFF7E6F89CFBF4F104FB11C1E8
:1032D000022815F81110197109D39CFBF4F191FB28
:1032E000F4F204FB121115F81110597100E05F712E
:1032F000032809D39CFBF8F090FBF4F104FB1100C8
:1033000015F81000987100E09F717E20D871BDE81B
:10331000F08170B50346FFF7BDF80A2293FBF2F582
:1033200002FB15366D496F4D5E240C7015F8166062
:103330004E700026022809D393FBF2F090FBF2F3C3
:1033400002FB130015F81000887000E08E7040201A
:10335000C8700E2008714F2048718C71CE7170BDFD
:103360005E4900220F230A714B716D238B71732309
:10337000CB71632310B10A70622001E04E20087007
:1033800048708B70CA705AE459E470B50446584DC1
:10339000C00701D0002200E0012240212846FDF7AD
:1033A0009CFBA0074FF4807101D5002200E00122B0
:1033B0002846FDF792FB600701D5002200E00122BC
:1033C00008212846FDF789FB20074FF4007101D53D
:1033D000002200E001222846FDF77FFBE00601D530
:1033E000002200E0012280212846FDF776FBA0069E
:1033F00001D5002200E0012220212846FDF76DFBC7
:10340000600601D5002200E001222846BDE8704098
:103410001021FDF762BB70B53649C3074FF4004475
:1034200001F1040201D00C6000E0146085074FF444
:10343000805301D50B6000E0136045074FF4006333
:1034400001D50B6000E0136005074FF4806301D5E0
:103450000B6000E01360284BC6064FF4005501D501
:103460001D6100E05D6186064FF4804501D51D6158
:1034700000E05D61450601D51C6100E05C61040669
:103480004FF0020301D50B6000E01360C3054FF05D
:10349000010001D5086070BD106070BD70B5104CA2
:1034A0000E4904F10C052078095C29700D49123988
:1034B00031F8100068600020FFF767FF6868FFF7C9
:1034C000AAFF2878FFF761FF6868FFF7A4FF20785C
:1034D000411C2170082812D300200FE03001002089
:1034E000280000202C6A000800080140B1000020DC
:1034F000000C01401008014000100140207070BD18
:103500002DE9F843964C95480D2381142060A18045
:10351000A371002262812261E271162626771F279D
:1035200027724FF0050C4FF0E10804F12001C4E9C7
:1035300005C84FF480490860A1F804908B714A8156
:103540000A61CA710E770F72C1E905C801F1200541
:1035500041142860A980AB716A812A61EA712E77D3
:103560002F72C5E905C848218DF8031002218DF896
:103570000210ADF800906946FDF73DFAA888ADF855
:10358000000069462868FDF736FAA088ADF800000B
:1035900069462068FDF72FFABDE8F88330B58279D7
:1035A0000021212320240D2A09D00B2A17D00C2A10
:1035B00011D184690269A2420DD3037207E08569C3
:1035C0000269AA4208D30372C279002A03D10161B9
:1035D0004189491C418130BD43699A42FBD3047241
:1035E000F5E710B5044681880068FDF75EFA217F93
:1035F000162905D0152902D1012800D0002010BDC0
:103600000028FBD1012010BD70B55548FFF7E9FF38
:10361000534C01260025012804D02046FFF7E1FF86
:1036200028B105E02069401C2061E67100E0E571E9
:10363000D4E90401884206D9A169884203D24848E6
:10364000FFF7CFFF88B1A1692069884204D94448B7
:10365000FFF7C7FF012808D0A1692069884209D96E
:103660003F48FFF7BEFF20B104E03D48FFF796FF5B
:1036700000E025613A482030FFF7B3FF384C203492
:10368000012804D02046FFF7ACFF28B105E02069EF
:10369000401C2061E67100E0E571D4E90401884234
:1036A00007D9A169884204D22D482030FFF799FF3D
:1036B00098B1A1692069884205D929482030FFF7CF
:1036C00090FF012809D0A169206988420BD92448BC
:1036D0002030FFF786FF28B105E021482030FFF7B2
:1036E0005DFF00E025611E484030FFF77AFF1C4C6B
:1036F0004034012804D02046FFF773FF28B105E0CD
:103700002069401C2061E67100E0E571D4E9040104
:10371000884207D9A169884204D211484030FFF796
:1037200060FFA8B1A1692069884205D90C484030E2
:10373000FFF757FF01280BD0A1692069884206D9FD
:1037400007484030FFF74DFF002800D1256170BDCC
:10375000BDE870400248403020E70000000C014006
:103760005C0100202DE9F05FFE4C0025DFF8F8B386
:103770002078DFF8F883DFF8F8A3C1064FF02009BE
:103780002E4604D520F010002070FFF7ECFAF94F18
:10379000387A202873D17889042870D122208AF8B9
:1037A00000009BF8070010B998F8070038B120789E
:1037B000002120F010002070BAF9020008E0207803
:1037C000C10607D520F010002070BAF902000121CF
:1037D000FFF7E4FAE64ABBF90A101C3A5846127B96
:1037E000914202D0027A202A03D0C17901290CD05B
:1037F0000EE0DF4A1C3A1173ABF80A60BAF8021007
:10380000491CAAF80210012516E0017A212922D0CC
:103810008BF808902078C1060ED56DB120F010000D
:10382000207000259AF80010D34801F04CF9BAF93D
:103830000210D24801F047F9CD4AB8F90A101C3AF3
:103840004046127B914202D0017A202925D0C179CD
:1038500001292BD02DE04681DBF81000B0F5AF7FB9
:103860000ED20A2112E0C64801680129E4D1BAF853
:103870000220521CAAF8022001250660DCE796E02F
:10388000A0F25F11B1F5AE7FEDD80521B0FBF1F2EA
:1038900001FB12000028E6D0CEE7A8F80A60BAF8CB
:1038A0000210491EAAF80210012516E0017A21290A
:1038B0001CD088F808902078C1060ED56DB120F094
:1038C0001000207000259AF80010AB4801F0FBF8BA
:1038D000BAF90210A94801F0F6F8BAF9020042F26A
:1038E0000F71884233DBAAF8021035E04681D8F820
:1038F0001000B0F5AF7F12D20A21B0FBF1F201FB4C
:1039000012000028E9D19E4908680128E5D1BAF8DB
:103910000200401EAAF8020001250E60DDE7A0F2B9
:103920005F11B1F5AE7F06D80521B0FBF1F201FBC6
:1039300012000028D1D1924801680129CDD1BAF8EE
:103940000220521EAAF8022001250660C5E70128C0
:1039500002DC0120AAF8020085491C398869401C54
:10396000C8228861B0FBF2F102FB110008B9FFF731
:1039700095FD7F484FF448721C388169B1FBF2F025
:1039800002FB101030B9FFF73FFE7D4801210160B6
:10399000FEF7C3FC76487B491C3882698A42FFF4F3
:1039A000F7AE217841F0100121708661F0E6BDE8A4
:1039B000F09F2DE9F05F6B4C0025DFF8ACB120786B
:1039C000DFF8A881DFF8A8A1C1064FF020092E4634
:1039D00004D520F010002070FFF71FF9654F387AEA
:1039E000202873D17889042870D121208AF800001A
:1039F0009BF8070010B998F8070038B1207800212B
:103A000020F020002070BAF9020008E02078C106FA
:103A100007D520F010002070BAF902000121FFF74D
:103A20001EF9534ABBF90A101C3A5846D27A914201
:103A300002D0027A202A03D0C17901290CD00EE0ED
:103A40004B4A1C3AD172ABF80A60BAF80210491C12
:103A5000AAF80210012516E0017A212922D08BF85C
:103A600008902078C1060ED56DB120F010002070AE
:103A700000259AF80010404801F025F8BAF9021024
:103A80003E4801F020F83A4AB8F90A101C3A40467C
:103A9000D27A914202D0017A202925D0C179012918
:103AA0002BD02DE04681DBF81000B0F5AF7F0ED2B1
:103AB0000A2112E0324801680129E4D1BAF8022053
:103AC000521CAAF8022001250660DCE7A6E0A0F25D
:103AD0005F11B1F5AE7FEDD80521B0FBF1F201FB2E
:103AE00012000028E6D0CEE7A8F80A60BAF8021063
:103AF000491EAAF80210012516E0017A21291CD0DE
:103B000088F808902078C1060ED56DB120F010001D
:103B1000207000259AF80010174800F0D4FFBAF979
:103B20000210164800F0CFFFBAF9020042F20F71FE
:103B3000884246DBAAF8021048E04681D8F8100017
:103B4000B0F5AF7F25D20A21B0FBF1F201FB1200E4
:103B50000028E9D10A4908680128E5D1BAF802002D
:103B6000401E11E0B10000207C0100209C010020DB
:103B7000580000205C010020009400080098000814
:103B800024010020F0490200AAF8020001250E607D
:103B9000CAE7A0F25F11B1F5AE7F06D80521B0FBF0
:103BA000F1F201FB12000028BED1FE480168012994
:103BB000BAD1BAF80220521EAAF8022001250660E6
:103BC000B2E7012802DC0120AAF80200F649886960
:103BD000401CC8228861B0FBF2F102FB110008B959
:103BE000FFF75CFCF0484FF448728169B1FBF2F0DA
:103BF00002FB101030B9FFF707FDEA480121016010
:103C0000FEF78BFBE848E94982698A42FFF4E7AE98
:103C1000217841F0100121708661E0E6C7E62DE9C8
:103C2000F05FE34DDFF88083DFF888932878E24C7B
:103C3000E24FC1064FF0200A42F20F7B4FF0000620
:103C400008F11C0804D520F010002870FEF747FF8B
:103C5000BFE000BF88F800A099F8070008B9E07934
:103C600038B12878002120F010002870B8F902003F
:103C700008E02878C10607D520F010002870B8F9B0
:103C800002000121FEF745FFC749B9F90A2048465D
:103C90008B7A9A4202D0037A202B03D0C279012A70
:103CA0000BD00DE08A72A9F80A60B8F80200401C37
:103CB000A8F802000120C87004E0027A212A0DD081
:103CC00089F808A0B4F90A20887A824202D0207AC2
:103CD000202830D0E079012836D038E04681D9F864
:103CE0001000B0F5AF7F0DD20A2211E0AD4A106886
:103CF0000128E7D1B8F802305B1CA8F80230C87080
:103D00001660DFE7A0F25F12B2F5AE7F07D805229A
:103D1000B0FBF2F302FB13000028E7D0D2E7A14882
:103D20000268012ACED1B8F802305B1CA8F8023034
:103D3000CA700660C6E76681B8F80220521EA8F86D
:103D400002200120C87039E0207A212808D084F8A8
:103D500008A02878C20631D5CA78012A20D02DE0E3
:103D600066812269B2F5AF7F0DD20A2011E08D483D
:103D70000268012A22D1B8F802305B1EA8F802308E
:103D8000CA7006601AE0A2F25F10B0F5AE7FEED8FE
:103D90000520B2FBF0F300FB13200028E7D00DE074
:103DA000CE7020F01000287098F80010844800F0C1
:103DB0008AFEB8F90210834800F085FEB8F90220A7
:103DC0005A4502DBA8F802B003E0002A01DCA8F89B
:103DD0000260387A202803D1788904283FF43AAF6A
:103DE000E5E5734910B50878C20604D520F0100047
:103DF0000870FEF75AFE6C491F201C31087010BD78
:103E00002DE9F05F4FF006096A4D6B4E6B4F4FF492
:103E1000967B4FF00008DFF898A1634C53E000BF99
:103E2000FFF7DFFFB5F90A00617A88420DD0297AE1
:103E300020290AD16072A5F80A80A1784046491C61
:103E400049B2A170022900DDA070B6F90A00617ABA
:103E500088420CD0307A202809D1A6F80A80A078B0
:103E6000401E40B2A070002801DA0220A070B7F90D
:103E70000A00042802DBA7F80A907AE0A069401C37
:103E8000B0FBFBF2A0610BFB120008B9FFF706FBC9
:103E9000A16940F6B830B1FBF0F200FB121030B966
:103EA000FFF7B2FB3F4901200860FEF736FA4648AB
:103EB000A169814207D39AF8001041F010018AF8F5
:103EC0000010C4F81880A0780028A9D051E000BFE5
:103ED000FFF76FFDB5F90A10607A81420CD0297A9C
:103EE000202909D1A5F80A80A2784146521C52B275
:103EF000A270022A00DDA170B6F90A1081420CD02E
:103F0000307A202809D1A6F80A80A078401E40B255
:103F1000A070002801DA0220A070B7F90A00042876
:103F200002DBA7F80A908FE0A069401CB0FBFBF20F
:103F3000A0610BFB120008B9FFF7B0FAA16940F6C7
:103F4000B830B1FBF0F200FB121030B9FFF75CFBA8
:103F5000144901200860FEF7E0F91B48A16981427D
:103F600007D39AF8001041F010018AF80010C4F845
:103F70001880A0780128ABD066E000BFFFF7F2FB05
:103F8000B5F90A10607A814221D0297A20291ED100
:103F9000A5F80A80A1784246491C49B2A1700229BD
:103FA00015DD13E0240100203C000020F049020050
:103FB000B10000207C0100209C0100205C01002059
:103FC0000094000800980008C0D40100A270B6F95F
:103FD0000A1081420CD0307A202809D1A6F80A8034
:103FE000A078401E40B2A070002801DA0220A07024
:103FF000B7F90A00042802DBA7F80A90D7E4A06901
:10400000401CB0FBFBF2A0610BFB120008B9FFF7EC
:1040100045FAA16940F6B830B1FBF0F200FB12108E
:1040200030B9FFF7F1FAFC4901200860FEF775F995
:10403000FA48A169814207D39AF8001041F01001B3
:104040008AF80010C4F81880A078022896D0AEE450
:104050002DE9F05FF24C6069FEF77DFCF14894F8C1
:1040600004800A21B0F90AC005222023EA4D002667
:1040700001274FF4AF7A4FF4AE7BC44504D090F8DB
:104080000880B8F1200F05D090F807C0BCF1010FEF
:1040900004D008E084F804C0468127E090F808C006
:1040A000BCF1210F14D00372DF4894F80480DFF8CC
:1040B0007C93B0F90AC0C44504D090F808C0BCF1A4
:1040C000200F30D090F807C0BCF1010F2DD031E0A7
:1040D0004681006950450CD2B0FBF1FC01FB1C008D
:1040E0000028E1D128680128DED12E606069401CDB
:1040F0000FE0A0F25F1CDC450ED8B0FBF2FC02FB27
:104100001C000028D0D128680128CDD12E6060691C
:10411000801C6061E770C7E728680128C4D12E6061
:1041200060690A30F5E746811AE090F808C0BCF1F2
:10413000210F08D0037299F80010CA0635D5E2782D
:10414000012A29D031E04681006950450BD2B0FBED
:10415000F1F201FB120040BB2868012825D12E6036
:104160006069401E0EE0A0F25F1159450DD8B0FB0A
:10417000F2F102FB1100C0B92868012815D12E60A8
:104180006069801E6061E7700FE0286801280CD12B
:104190002E6060690A38F5E7E67021F0100189F8B1
:1041A0000010A348616900F08EFC6069012801DC01
:1041B000676103E09F49884200DB6161A069401CA0
:1041C0007021B0FBF1F2A06101FB120008B9FFF70A
:1041D00065F9A0694FF45E71B0FBF1F201FB1200CA
:1041E00020B9FFF711FA2F60FEF797F8A0694DF696
:1041F0000311884206D399F8001041F0100189F8A4
:104200000010A6610AE52DE9F05F8B4C00212088A3
:1042100000B2FEF761FE8348814D0127B0F90A1014
:104220006A7B7D4EDFF804A24FF00009914202D074
:10423000037A202B0AD0C1790A234FF4AF7B4FF4C5
:10424000AE7E4FF00508012904D006E06973A0F89E
:104250000A901DE0017A21290BD07349B1F90AC0F7
:10426000944502D00A7A202A2CD0CA79012A2CD06F
:104270002EE0A0F80A900069494658450BD2B0FBE1
:10428000F3F203FB120068BB3068012860D1316093
:104290002088401C48E0A0F25F1272450BD8B0FBAA
:1042A000F8F208FB1200E8B93068012850D13160FB
:1042B0002088801C38E03068012849D1316020888E
:1042C000401D31E0A1F80A901CE00A7A212A0AD0A8
:1042D00020220A7202729AF80010CA0638D5EA78CB
:1042E000012A2BD034E0A1F80A90096948465945C3
:1042F0000BD2B1FBF3F203FB121149BB3168012968
:1043000026D130602088401E0EE0A1F25F12724577
:104310000DD8B1FBF8F208FB1211C9B931680129B7
:1043200016D130602088801E2080EF7010E0316848
:1043300001290DD130602088401FF5E785F80390F2
:1043400021F010018AF8001021883C4800F0BBFBE6
:104350002188502901D8502003E040F6B83081422E
:1043600000D32080A869401C7021B0FBF1F2A86145
:1043700001FB120008B9FFF791F8A8694FF45E71CC
:10438000B0FBF1F201FB120020B9FFF73DF9FDF798
:10439000C4FF3760A8694DF60311884211D39AF81B
:1043A0000010274841F010018AF8001000682188A9
:1043B00008442449086081B20020FDF7EAFEC5F8F0
:1043C00018902BE42DE9F05F1F4CE07901287DD196
:1043D000154FF879012879D0124E114DDFF86CB0E5
:1043E000F0791C35DFF838904FF0010A4FF00008E3
:1043F00001286BD0A9E000BF15498BF80080A1F817
:104400000080A4F80AA0A6F80A8000BFFFF7FBFE10
:1044100060890128FAD01FE024010020C0D40100E7
:104420003C0000207C0100209C010020B100002005
:10443000009C00083F420F00C200002000B00008AE
:1044400020010020E40000205C0100202C0100205D
:10445000CE000020FFF7FCFD60890228FAD080B270
:10446000032819D1207A20286CD128781F2806D05B
:10447000202807D0212807D0222808D00AE089F870
:10448000028007E0032103E089F802A002E0022194
:1044900089F80210FFF7B4FC207A202852D16089F5
:1044A0000328F7D048E000BFFEF794FE8BF800A089
:1044B000207A202813D1B4F90A0007280FDBA4F8CA
:1044C0000A8084F807802978FE4800E048E000F080
:1044D000FAFAB5F90210FC4800F0F5FA32E0D9F822
:1044E00018004FF4FA71401CB0FBF1F2C9F8180043
:1044F00001FB120008B9FEF7D1FFD9F818004FF4FC
:104500007A61B0FBF1F201FB120030B9FFF77CF8E1
:10451000EE49C1F800A0FDF700FFED4AD9F81810E8
:10452000914206D3EB490A7842F010020A70C9F8AA
:104530001880207A202805D1B4F90A00072801DC68
:104540000628B1DAE07901280AD1A16920698842F8
:1045500006D3F079002803D1F87900283FF44CAF56
:104560003EE42DE9F047DC48DC4C00250168B4F955
:104570001000FEF765FEDA4994F805C00A26B1F985
:104580000A3020270022D1484FF4AF794FF4AE7A99
:104590004FF00508634504D091F808C0BCF1200F26
:1045A00003D0CB79012B03D005E063714A811FE072
:1045B0000B7A212B0ED00F72CA4994F805C0B1F9BD
:1045C0000A30634502D00B7A202B2ED0CB79012BF9
:1045D0002DD02FE04A81096949450CD2B1FBF6F391
:1045E00006FB13110029E7D101680129E4D102601B
:1045F000218A491C0FE0A1F25F1353450ED8B1FB8D
:10460000F8F308FB13110029D6D101680129D3D191
:104610000260218A891C21820125CDE701680129D8
:10462000CAD10260218A491DF5E74A8118E00B7A58
:10463000212B07D081F80870B4F9100001282CDC78
:1046400001202DE04A81096949450CD2B1FBF6F3FE
:1046500006FB13110029EFD101680129ECD102609A
:10466000208A401E0FE0A1F25F1353450ED8B1FB24
:10467000F8F308FB13110029DED101680129DBD111
:104680000260208A801E20820125D5E70168012969
:10469000D2D10260208A401FF5E7642801DB642044
:1046A00020828C480178CA0604D5002D02D021F062
:1046B00010010170BDE8F0872DE9F05F874C884953
:1046C0002046002590F90020B1F90AC0501C46B2DE
:1046D000084694F80680077A7C484FF4AF7E4FF086
:1046E0000A094FF0050B4FF0200A2B46C44501D0B4
:1046F000202F05D091F807C0BCF1010F04D005E0D0
:1047000084F806C04B8120E0212F0FD081F808A04B
:104710007449A7790A46B1F90A60127ABE4201D0FB
:10472000202A2CD0CE79012E2BD02CE0674F4B8144
:1047300009693F6871450AD2B1FBF9FC09FB1C11FC
:104740000029E5D1012FE3D1036026700FE0A1F22B
:104750005F16B6F5AE7F0CD8B1FBFBFC0BFB1C1152
:104760000029D5D1012FD3D1921C036005E001258A
:10477000CEE7012FCCD1521D03602270F7E74B81A9
:1047800018E0212A08D081F808A000BF94F90000A1
:1047900000282DDC23702FE04B81096971450CD274
:1047A000B1FBF9F609FB16110029EFD101680129C7
:1047B000ECD103602078401E10E0A1F25F12B2F548
:1047C000AE7F0ED8B1FBFBF60BFB16110029DDD135
:1047D00001680129DAD103602078801E207001254C
:1047E000D4E701680129D1D103602078401FF5E7A3
:1047F000322801DB3220207094F90000FEF789FD99
:10480000344E3078C0060AD5002D08D094F9001037
:10481000354800F058F9307820F01000307016E478
:104820002DE9F0412D4C94F90100FEF799FD2C483B
:10483000E2790126B0F90A102C4F002591420CD0E4
:10484000027A202A09D1E17145816078C8B165708A
:1048500094F90110384600F036F92248E279B0F9AF
:104860000A10914211D0017A20290ED14581607839
:1048700048B1657094F901103846BDE8F04100F088
:1048800022B96670E4E76670F4E7BDE8F0812DE9CF
:10489000F047124C0025E089FEF7B8F8104994F86B
:1048A00008C00A26B1F90A302027002207484FF431
:1048B000AF794FF4AE7A4FF0050863451BD091F8FD
:1048C00008C015E0009400080098000824010020AA
:1048D00090D00300B1000020E00000203C00002048
:1048E0007C0100209C01002000C0000800C80008D6
:1048F000BCF1200F03D0CB79012B03D005E023724C
:104900004A811FE00B7A212B0ED00F723F4994F899
:1049100008C0B1F90A30634502D00B7A202B2ED0A3
:10492000CB79012B2DD02FE04A81096949450CD262
:10493000B1FBF6F306FB13110029E7D10168012949
:10494000E4D10260E189491C0FE0A1F25F135345F5
:104950000ED8B1FBF8F308FB13110029D6D101687A
:104960000129D3D10260E189891CE1810125CDE7CC
:1049700001680129CAD10260E189491DF5E74A8130
:1049800017E00B7A212B06D00F72E08901282DD871
:104990000120E0812FE04A81096949450CD2B1FB31
:1049A000F6F306FB13110029EFD101680129ECD1C0
:1049B0000260E089401E0FE0A1F25F1353450ED85C
:1049C000B1FBF8F308FB13110029DED101680129BE
:1049D000DBD10260E089801EE0810125D5E7016816
:1049E0000129D2D10260E089401FF5E74FF6FF713F
:1049F000884200D3E18106490878C20604D5002D1B
:104A000002D020F01000087054E600009C01002045
:104A1000B100002010B50446FCF73DF93520FCF745
:104A200048FB2046FCF772F93520FCF742FBBDE855
:104A30001040FCF73CB970B50C460546FCF72BF965
:104A40003520FCF736FB21462846FCF7FEF93520D9
:104A5000FCF72FFBFCF72BF970BD10B5FCF71BF929
:104A60000120FCF798FABDE81040FCF720B910B51A
:104A70002948FFF7CFFF2948FFF7CCFF2848FFF769
:104A8000C9FF2848FFF7C6FF2748FFF7C3FF27489D
:104A9000FFF7C0FF2648FFF7BDFF2648FFF7BAFF24
:104AA0002548FFF7B7FF2548FFF7B4FF2448FFF775
:104AB000B1FF2448FFF7AEFF2348FFF7ABFFBDE887
:104AC00010402248A6E72DE9F0410446064600685A
:104AD00088461F4D4FF48067286008E0241DA01B06
:104AE000B84202D93046FFF795FF20682860401C85
:104AF000F4D141462046BDE8F0419CE703680246F8
:104B000013490B605B1C03D0024650F8043FF8E7E2
:104B100010680860704700000094000800980008C2
:104B2000009C000800A0000800A4000800A80008DD
:104B300000AC000800B0000800B4000800B800088D
:104B400000BC000800C0000800C4000800C800083D
:104B50006000002070B5954D044640212846FBF7C3
:104B6000B9FE0028F9D0E1B22846FBF752FE2046F4
:104B700070BD401E00B20028FBDC704710B58C4CA5
:104B800001212046FDF717F8002805D02046BDE892
:104B900010400121FDF71BB810BD10B501218C0795
:104BA0002046FDF708F8002805D02046BDE8104053
:104BB0000121FDF70CB810BD10B57E4C0121204637
:104BC000FCF7F9FF002805D02046BDE81040012180
:104BD000FCF7FDBF10BD10B5774C01212046FCF756
:104BE000EAFF002805D02046BDE810400121FCF76F
:104BF000EEBF10BD10B50420FDF7E6FB6F4900B114
:104C000001200870BDE810404FF48030FDF774BB00
:104C100010B501F0BBF86A48FBF763FC01F0C3FC78
:104C2000FEF76EFC01F0DFF901F0DFF801F062FC45
:104C3000BDE8104001F08ABC10B5624C21686248A2
:104C40004160491C06D100F0CEFA40F205512046E1
:104C5000FFF739FF3220401E00B20028FBDC10BDF8
:104C600010B57D20FBF7A3FB08B1FBF7B5FC45F2BF
:104C70005550FDF749FB0420FDF749FB4FF4FA605E
:104C8000FDF748FBFDF749FBBDE81040FDF74ABBC7
:104C900030B54D4A93681C79047093681B7A437051
:104CA00093685B7883709368DB78C37093681D7832
:104CB00005715D7945719D7A8571DD79C5715D7A82
:104CC00005729D784572DD7A85729B79C372D368CF
:104CD0001B7863400B70D3688479057A5B786340F6
:104CE000C4796C406340447A6340847A6340C47AF8
:104CF00063404B70D36804799B7863408B70D268B3
:104D000083784078D2785A404240CA7030BD2E49EC
:104D10002B4800B510311430FFF7BAFF2A48103085
:104D20000178427801EB02218278C078120402EB0C
:104D300000600844244A2549506109689161814214
:104D400001D1012000BD002000BD10B5FFF760FFBC
:104D5000FFF786FFFFF7DBFF1B49087028B1FFF75D
:104D60006BFF00F042FC002010BDFDF7D6FAFCE717
:104D7000F0B54FF6FF74144A41F2210510E080238C
:104D80005688370404EA460600D56E4056800678F9
:104D90001E4202D056886E4056805B08F0D1401CFF
:104DA000491EC9B2EBD25088F0BD00000038014066
:104DB00000080040002C014000040040AC0000202E
:104DC000BC0100200090000880000020F0FF0008D7
:104DD000F0B504681460046800251C6001240CE030
:104DE00050F824601768B74200D2166050F824606B
:104DF0001F68B74200D91E60641C8C42F0DB0022A1
:104E000004E000BF50F82230521C1D448A42F9DBF6
:104E1000B5FBF1F0F0BD30B5002305E051F82350AB
:104E200004685B1C2C4404609342F7DB30BD30B552
:104E3000002303E051F823505B1C2C449342F9DB20
:104E4000B4FBF3F1016030BD0022134601E008C05D
:104E5000521C8A42FBDB70472DE9F047FE48DFF821
:104E6000FC834FF4806A90F80FC0FD4B01464FF46D
:104E7000FA698A8D8F7C521C93F900608D6E4C6F9D
:104E80000021F84B92B2BCF1000F16D0BCF1010F1B
:104E90001CD190F804C000BFBCF1000F16D058F828
:104EA000277052453C44446782850AD38185A20A13
:104EB000026796B1AA1A428502E090F802C0EBE7B9
:104EC0004167B0F92A10994202DC4385BDE8F087BA
:104ED0004945FBDBA0F82A90F8E74185F0E770B57B
:104EE000DD4CA07B012817D0A079DF4E4FF48075F0
:104EF00020B1012229463046FBF7EFFDB4F924002A
:104F0000502809DB0020A071A084024629463046C3
:104F1000BDE87040FBF7E1BD70BD2DE9F041CE4C1E
:104F2000A07B012865D04FF48061D048FBF7BDFD20
:104F30000127002608B1E67000E0E770E078A1786C
:104F4000884201D1012200E00022C94D6271C648A9
:104F50002B784FF400711F2B06D0202B0CD0212B67
:104F600014D0222B18D01CE022B90022FBF7B5FD8B
:104F70006E6023E001220BE052B1B5F902206B68AC
:104F8000A56B6A4393420CD9012215E062B1F1E7A7
:104F9000FBF7A3FD6E6004E032B101226E60FBF707
:104FA0009CFD607860B122E0B5F902206B68A56BCA
:104FB0006A439342F5D90022FBF78FFD2776F0E78D
:104FC0006079012813D1207E012810D1606CA94A94
:104FD000401C60642676A16C491CA164914200D3F8
:104FE000A664A5490968884201DBA77166646079F7
:104FF0006070BDE8F0812DE9F0410220FDF749F82D
:10500000002868D0944C207A002864D19B4800780E
:10501000002860D000252575994AA06D217D32F9C0
:105020001130491CC9B2184421751029F6D3A06566
:10503000A06F401CA06732284DDD04218A48FBF791
:1050400034FD0127E0B3607D401C6075E08D401C9D
:1050500006B2E685A06DC11700EB1170001101F0DA
:1050600081FB0146E065606E01F0F8FAA5656066B7
:10507000B6F5805F18DBE5856FF00B0101F08FFC62
:10508000C4E918050646E08B01F084FB314601F0C7
:10509000E5FA01F04BFB81B220640020FDF779F8BE
:1050A00001210020FDF753F8607D0A21B0FBF1F2E9
:1050B00001FB120111B908B1A5706575E77402E032
:1050C000FFE7A7706575FFF728FFFFF708FFA179D5
:1050D0006079FEF760F8BDE8F0410220FCF7E7BF19
:1050E000002100EB400000E0491CB1EB400FFBD376
:1050F000704710B5634C012301461A462046FCF761
:1051000005FE01212046FCF7DEFD02212046FCF7CA
:10511000D1FE0028F9D02046BDE81040FCF73ABE89
:105120002DE9F04100250E4680462C4641F2883795
:1051300008E04046FFF7DDFF05443846FFF7D0FFA3
:10514000641CE4B2B442F4D3B5FBF6F080B250E78D
:105150002DE9F0470026404C43490127E675103100
:10516000A6754FF080083546C1F80080DFF8F8904A
:1051700004214846FBF799FC30B1E575A07DB842A3
:1051800009D3A575A57006E0A575E07DB84202D3E8
:10519000E5750120A070A07D761C401CA075E07D07
:1051A000F6B2401CE075BE42E2D92F491431C1F875
:1051B00000808BE610B50420FDF790F8002806D09B
:1051C000FFF7C6FFBDE810400420FDF795B810BDFD
:1051D00000EBC002002102EB001000E0491CB1EB23
:1051E000800FFBD370472DE9F0471B4C4FF47A71C9
:1051F000332021851E4FA0721F263E700A20224AAE
:105200007880642010804FF49670E0830120E07075
:1052100021844FF42F716184DFF870900025DFF84E
:105220004080E57389F8000088F80000314618488E
:10523000FFF749FC3220FFF7CBFFB7F90210154802
:10524000FFF741FC3220FFF7C3FF0B48016812480B
:10525000FFF739FC322021E0A4000020DC0100200F
:105260003D00002030F8FFFF00080140000C014025
:10527000580000203F420F00500000209C000020FA
:105280005C020020002401404C0000203C00002073
:105290000094000800980008009C0008FFF798FFA1
:1052A000B4F92810FE48FFF70EFC3220FFF790FFFC
:1052B000FC48216CFFF707FC3220FFF789FFA17A39
:1052C000F948FFF700FC3220FFF782FFE178F7484A
:1052D000FFF7F9FB3220FFF77BFFE18BF448FFF784
:1052E000F2FB3220FFF774FFF2480168F248FFF743
:1052F000EAFB3220FFF76CFFF0480168F048FFF747
:10530000E2FB3220FFF764FFE17BEE48FFF7DBFBB7
:105310003220FFF75DFF99F90010EB48FFF7D3FB50
:105320003220FFF755FFE948A16EFFF7CCFB322092
:10533000FFF74EFF98F90010E548FFF7C4FBE5487A
:10534000067205614581E44806724581BEE52DE996
:10535000F05FE04CDFF88493DFF884B34846DFF871
:1053600084E399F80980877A94F808A09BF808C02C
:105370009EF807209BF80710E07900252669A369AD
:10538000B8F1000F09D19E4207D3012805D1BCF125
:10539000210F02D1012900D112B1332F1FD035E0E6
:1053A0004FF001084E4689F80980332F06D033208C
:1053B000B0726581BAF1210F02D006E03420F7E720
:1053C0000120FDF733F886F80C80B17AB648FFF774
:1053D0007AFB202020726581ABF80A5070E0B8F1AA
:1053E000000F13D1BF4F9E423F7A0BD3012809D142
:1053F000212F07D1F046012A04D1BCF1210F01D1A0
:10540000012905D09E4201D3012832D080B357E054
:10541000022089F80900FDF732F8AE48FEF7E1F8FE
:1054200001281DD1AF48FEF7DCF8012818D1AC489F
:10543000FEF7D7F8012813D1FFF719FBA548FEF7AF
:10544000D0F801280CD1A748FEF7CBF8012807D1E6
:10545000A348FEF7C6F8012802D10220FCF7E6FFB8
:10546000FFF7C1FE6581ABF80A50A8F80A5020E0AA
:1054700024E07646212F31D1012A2FD100292DD1C8
:10548000032089F8090099F8110010B1012805D00E
:1054900007E00120C9F84450608102E0C9F8485093
:1054A0006581BAF1210F02D10320FCF7BFFF25610E
:1054B00075814FF47A70FFF78BFE01E001B95AB1A4
:1054C00099F80900012803D0022801D0032805D14A
:1054D000BDE8F05FFCF7AABF89F80950BDE8F09F6E
:1054E0007E4810B5B0F8480000B2FDF7C1F97C491C
:1054F000002048817B49488110BD784810B5406C38
:10550000FDF754F97649002048817649488110BD5D
:10551000724830B4417A002924D16E49847ACB791B
:105520006F49342CCA796F49C9790DD0332C11D009
:10553000342C17D1012B03D0012A01D0012911D11C
:1055400030BC0120FCF772BF002BF3D1002AF3D14D
:105550000029F3D1407C18B1012803D130BCBFE74A
:1055600030BCCAE730BC704710B55F48FFF7C6FAD9
:105570005E4C20705E48FFF7C1FA60805D48FFF71F
:10558000BDFA5D4908604648FFF7B8FA534C2085DC
:105590004448FFF7B3FA20644348FFF7AFFAA0721C
:1055A0004248FFF7ABFAE0704148FFF7A7FAE08303
:1055B0004148FFF7A3FA3F4908604148FFF79EFAC8
:1055C0003E4908603F48FFF799FAE0733E48FFF70D
:1055D00095FA4A4908703D48FFF790FAA0663C48A2
:1055E000FFF78CFA4649087010BDFFF7BDFF3B4C32
:1055F0004FF47A70E067E08B00F57A7081B2206436
:105600000020FCF7C6FD002604F18005207A002862
:10561000FCD16868401C6860FFF77FFCFFF75FFC07
:10562000A1796079FDF7B7FDFFF772FFFFF78FFEF5
:10563000A07A332801D1FEF7C5FEA07801280BD14E
:105640002879C00702D1208E401C2086B4F9300092
:10565000052801DBA670268668680321B0FBF1F2FD
:1056600001FB120119B921494A68521C4A601921EB
:10567000B0FBF1F201FB120030B9A07910B1A08C9F
:10568000401CA084FDF70AFF6868C821B0FBF1F256
:1056900001FB1200B0BBFDF7B7FF0120286032E02C
:1056A00000A0000800A4000800A8000800AC000842
:1056B00000B000087800002000B400087C00002042
:1056C00000B8000800BC000800C0000800C40008C2
:1056D00000C800085C0100203C010020A40000205C
:1056E0009C0100207C01002000940008580000204C
:1056F00000980008009C0008500000203C0000209A
:105700003D00002001E0FCF708FE696843F2D40088
:105710008142FFF47BAF607B40F0100060736E60ED
:1057200074E72DE9F047FC4CA08F01B2B4F92800D2
:10573000FCF7BCFEF948217B4FF00005C079084317
:105740006AD1A07A332867D1B4F92830F44A638645
:10575000667EB2F90A1005274FF00A094FF4AF7AB6
:105760004FF0200804F18000B14202D0167A202EBA
:1057700003D0D179012904D006E061765581591C06
:1057800038E0117A21290FD082F80880E54E94F88C
:1057900019C0B6F90A10614502D0317A20292BD000
:1057A000F17901292CD02EE05581116951450CD891
:1057B000B1FBF9FC09FB1C110029E7D101680129A3
:1057C000E4D1591C21850560E0E7A1F25F1656453A
:1057D0000BD2B1FBF7F607FB16110029D6D10168F1
:1057E0000129D3D1991C056004E001680129CDD1BC
:1057F000591D05602185C9E77581208D401E35E062
:10580000317A212909D086F8088000BFB4F9281020
:105810008B4232D0F07958B32FE075813169514510
:105820000BD2B1FBF9FC09FB1C110029EED1016878
:105830000129EBD1218D491E0FE0A1F25F1CBCF5BF
:10584000AE7F0DD8B1FBF7FC07FB1C110029DDD1A1
:1058500001680129DAD1218D891E21850560D5E7EE
:1058600001680129D2D10560208D401F2085CDE738
:10587000D07910B9AC48FFF726F9B4F9280042F204
:105880000F71884201DB218593E40028FCDC25852B
:105890008FE42DE9F04FDFF880B2A0485E46DFF8D4
:1058A00080E2C179307B93B001439BF810C0B77A96
:1058B000BEF90A000090C0B20A90B08F4FF0000A03
:1058C00002B29EF80700109006F18000DEF810503A
:1058D0000368A5F25F140F94924CBCF1000FB4F969
:1058E0000A400E948F4CE4790D948E4C2469A4F2F6
:1058F0005F18CDF8308096F80080CDF81080DFF882
:105900002482B67E9EF8089098F808801AD0BCF1E0
:10591000010F75D1002973D15946332F70D1B1F9D8
:105920002210ABF836104F1CDDF800C03FB2B44572
:1059300002D0B9F1200F73D0DDF840C0BCF1010FE7
:105940006FD0C2E000295BD15946332F58D1B1F94D
:105950002010ABF834104F1CDDF800C03FB2B44546
:1059600002D0B9F1200F05D0DDF840C0BCF1010F25
:1059700010D012E00A9B8BF81A30AEF80AA042F25F
:105980000F715846ABF820708F4247DABBF92010F0
:10599000012056E0B9F1210F11D05F4FDDF838C07A
:1059A000DFF880913F8C5D467F1E3FB2B44502D048
:1059B000B8F1200F36D00D9E012E3BD03DE04FF4C4
:1059C000AF765446AEF80AA0B5420BD80A21B5FB13
:1059D000F1F601FB1651D1B9012B18D10460ABF8D7
:1059E000207014E00F9FB7420BD20526B5FBF6F7E7
:1059F00006FB17555DB9012B09D1891C046004E031
:105A0000F4E0012B03D1491D0460ABF82010BBF971
:105A1000203042F20F7158468B42B7DB0184B5E764
:105A20003FE04FE0A9F80AA050462F84002FADDCDC
:105A30002884ABE7B8F1210F08D0202089F80800AE
:105A4000049813B0BDE8F04FFCF7A2BD5646A9F884
:105A50000AA0B4F5AF7F0AD20A21B4FBF1FC01FB26
:105A60001C41C1B9012B16D106602F8413E00C9F95
:105A7000B7F5AE7F0AD80527B4FBF7FC07FB1C443B
:105A80004CB9012B07D1891E066003E0012B02D11E
:105A9000491F06602984B5F920000028BFDC2E8448
:105AA00074E70A9B8BF81A30AEF80AA042F20F7125
:105AB0005846ABF822708F4253DA00BFBBF9221070
:105AC00001205FE0B9F1210F13D0134FDDF838C08A
:105AD000DFF850907F8C5D467F1E3FB2B44502D008
